:020000040800F2
:1000000000000120390F0008C10E0008C70E0008CB
:10001000CD0E0008D30E0008D90E00080000000025
:100020000000000000000000000000005160000817
:10003000DF0E000800000000A1620008DD350008A6
:10004000890F0008890F0008890F0008890F000830
:10005000890F0008890F0008890F0008890F000820
:10006000890F0008890F0008890F0008890F000810
:10007000890F0008890F0008890F0008890F000800
:10008000890F0008890F0008890F00080000000090
:10009000000000000000000000000000890F0008C0
:1000A000890F0008890F0008890F0008890F0008D0
:1000B000890F0008890F0008890F0008890F0008C0
:1000C000890F0008890F0008890F0008890F0008B0
:1000D000890F0008ED0E0008890F000800000000DD
:1000E000890F0008890F0008890F00080000000030
:1000F000000000000000000000000000890F000860
:1001000000000000890F0008010F0008890F000897
:1001100000000000000000000000000000000000DF
:10012000890F0008890F0008890F0008890F00084F
:10013000890F00080000000000000000000000001F
:10014000000000000000000000000000890F00080F
:10015000890F0008890F0008890F0008890F00081F
:10016000890F0008890F000800000000000000004F
:10017000000000000000000000000000000000007F
:1001800000000000890F00080000000000000000CF
:04019000890F0008CB
:1001A00010B5054C237833B9044B13B10448AFF3B1
:1001B00000800123237010BD7400002000000000A7
:1001C000F869000808B5034B1BB103490348AFF3B6
:1001D000008008BD0000000078000020F8690008D9
:1001E00053B94AB9002908BF00281CBF4FF0FF319E
:1001F0004FF0FF3000F074B9ADF1080C6DE904CE9A
:1002000000F006F8DDF804E0DDE9022304B07047F1
:100210002DE9F047089D04468E46002B4DD18A42B9
:10022000944669D9B2FA82F252B101FA02F3C2F1EC
:10023000200120FA01F10CFA02FC41EA030E94407D
:100240004FEA1C48210CBEFBF8F61FFA8CF708FB9E
:1002500016E341EA034306FB07F199420AD91CEB76
:10026000030306F1FF3080F01F81994240F21C81A8
:10027000023E63445B1AA4B2B3FBF8F008FB1033F0
:1002800044EA034400FB07F7A7420AD91CEB040425
:1002900000F1FF3380F00A81A74240F207816444F5
:1002A000023840EA0640E41B00261DB1D44000237A
:1002B000C5E900433146BDE8F0878B4209D9002DDE
:1002C00000F0EF800026C5E9000130463146BDE868
:1002D000F087B3FA83F6002E4AD18B4202D38242D2
:1002E00000F2F980841A61EB030301209E46002D81
:1002F000E0D0C5E9004EDDE702B9FFDEB2FA82F2D6
:10030000002A40F09280A1EB0C014FEA1C471FFA33
:100310008CFE0126200CB1FBF7F307FB131140EA1A
:1003200001410EFB03F0884208D91CEB010103F1E7
:10033000FF3802D2884200F2CB804346091AA4B2A9
:10034000B1FBF7F007FB101144EA01440EFB00FE7D
:10035000A64508D91CEB040400F1FF3102D2A645E2
:1003600000F2BB800846A4EB0E0440EA03409CE781
:10037000C6F12007B34022FA07FC4CEA030C20FA2E
:1003800007F401FA06F31C43F9404FEA1C4900FA4E
:1003900006F3B1FBF9F8200C1FFA8CFE09FB1811CB
:1003A00040EA014108FB0EF0884202FA06F20BD93E
:1003B0001CEB010108F1FF3A80F08880884240F28E
:1003C0008580A8F102086144091AA4B2B1FBF9F0D2
:1003D00009FB101144EA014100FB0EFE8E4508D9CD
:1003E0001CEB010100F1FF346CD28E456AD9023852
:1003F000614440EA0840A0FB0294A1EB0E01A14237
:10040000C846A64656D353D05DB1B3EB080261EBA4
:100410000E0101FA07F722FA06F3F1401F43C5E97E
:10042000007100263146BDE8F087C2F12003D840B4
:100430000CFA02FC21FA03F3914001434FEA1C47F6
:100440001FFA8CFEB3FBF7F007FB10360B0C43EAE8
:10045000064300FB0EF69E4204FA02F408D91CEB98
:10046000030300F1FF382FD29E422DD90238634496
:100470009B1B89B2B3FBF7F607FB163341EA034136
:1004800006FB0EF38B4208D91CEB010106F1FF3885
:1004900016D28B4214D9023E6144C91A46EA00467C
:1004A00038E72E46284605E70646E3E61846F8E60E
:1004B0004B45A9D2B9EB020864EB0C0E0138A3E757
:1004C0004646EAE7204694E74046D1E7D0467BE738
:1004D000023B614432E7304609E76444023842E7B0
:1004E000704700BF80B400AF044BDB681B0A03F009
:1004F00007031846BD465DF8047B704700ED00E039
:1005000080B483B000AF0346FB7197F90730002B2E
:100510000BDBFB7903F01F02074997F907305B09F2
:10052000012000FA02F241F8232000BF0C37BD463B
:100530005DF8047B704700BF00E100E080B483B049
:1005400000AF03463960FB7197F90730002B0ADBD7
:100550003B68DAB20C4997F907301201D2B20B446A
:1005600083F800230AE03B68DAB20849FB7903F01C
:100570000F03043B1201D2B20B441A7600BF0C37B2
:10058000BD465DF8047B704700E100E000ED00E04F
:1005900080B489B000AFF860B9607A60FB6803F09E
:1005A0000703FB61FB69C3F10703042B28BF042386
:1005B000BB61FB690433062B02D9FB69033B00E0F6
:1005C00000237B614FF0FF32BB6902FA03F3DA4389
:1005D000BB681A407B699A404FF0FF317B6901FA92
:1005E00003F3D9437B680B40134318462437BD46B9
:1005F0005DF8047B7047000080B500AF00F0C6FCDA
:1006000000F026F800F0C0F800F082F800F03CF9A5
:1006100002F0FEFF094A0221102003F0F0F8034621
:10062000074A1360074A0021074803F03BF80346D6
:10063000064A136003F010F8FEE700BFF06A0008F6
:10064000D8000020CC6A000849080008D400002027
:1006500080B594B000AF07F1200330220021184686
:1006600006F000F907F10C0300221A605A609A6044
:10067000DA601A610023BB60234B1B6C224A43F0F3
:1006800080531364204B1B6C03F08053BB60BB682A
:1006900000237B601D4B1B6823F440431B4A43F43B
:1006A00000431360194B1B6803F440437B607B6875
:1006B00002233B620123FB6210233B630023BB63E5
:1006C00007F12003184600F0B5FF0346002B01D0C8
:1006D00000F0D4F80F23FB6000233B6100237B6113
:1006E0000023BB610023FB6107F10C0300211846C6
:1006F00001F018FA0346002B01D000F0BFF800BF4C
:100700005037BD4680BD00BF003802400070004039
:1007100080B500AF194B1A4A1A60184B194A5A6033
:10072000164B4FF480529A60144B0022DA60134B40
:100730004FF4C0621A61114B0C225A610F4B002218
:100740009A610E4B0022DA610C4801F07DFE0346EF
:10075000002B01D000F092F8FFF7C4FE0346002200
:1007600000211846FFF714FF034619462520FFF71E
:10077000E5FE2520FFF7C4FE00BF80BD90000020ED
:100780000010014000CA080080B588B000AF07F132
:100790000C0300221A605A609A60DA601A61002322
:1007A000BB60264B1B6B254A43F004031363234BAA
:1007B0001B6B03F00403BB60BB6800237B601F4B13
:1007C0001B6B1E4A43F0800313631C4B1B6B03F02F
:1007D00080037B607B6800233B60184B1B6B174AD0
:1007E00043F001031363154B1B6B03F001033B60E4
:1007F0003B6800224FF40051114800F001FF4FF414
:100800000053FB6001233B6100237B610023BB613C
:1008100007F10C0319460A4800F06EFD0123FB6046
:1008200000233B6101237B6107F10C031946054856
:1008300000F062FD00BF2037BD4680BD0038024099
:10084000000802400000024080B582B000AF78602E
:10085000012002F0B9FFFBE780B582B000AF7860FD
:100860007B681B68044A934201D100F0B1FB00BFD2
:100870000837BD4680BD00BF000C004080B400AF0B
:1008800072B600BFFEE7000080B582B002AF002262
:100890002D21012003F0EEF903461D4A13600022CA
:1008A0001521012003F0E6F903461A4A13600120DE
:1008B00003F057FA0346184A1360184B01930123BB
:1008C0000093002380221649164803F0CCFF164BF4
:1008D000019301230093002380221449144803F05C
:1008E000C2FF144B0193012300930023802212497D
:1008F000124803F0B8FF124B019301230093002329
:1009000080221049104803F0AEFF04F0B9F9FEE769
:100910005C01002060010020640100204C010020E7
:10092000286A00084D090008500100203C6A0008B0
:10093000690B000854010020506A00081D0C0008D3
:1009400058010020606A0008D90B0008B0B594B0C7
:1009500000AF7860824B07F10C041D460FCD0FC429
:100960000FCD0FC495E80F0007C4237004F0A4FA5C
:100970000346BB6001237B64002387F84F300023CC
:1009800087F84E30002387F8433097F84F30002B1C
:1009900012D097F82B300133DBB287F82B3097F861
:1009A0002D300133DBB287F82D3097F82F3001332B
:1009B000DBB287F82F3008E0442387F82B3044233C
:1009C00087F82D30442387F82F3097F84F303B734A
:1009D0003B7B43F04003DBB23B7397F84F30062B71
:1009E00029D997F84E30002B33D13B7B43F01003CD
:1009F000DBB23B7397F84F30072B12D997F83130A1
:100A00000133DBB287F8313097F833300133DBB292
:100A100087F8333097F835300133DBB287F835305B
:100A200017E04E2387F831304E2387F833304E23BA
:100A300087F835300DE03B7B23F01003DBB23B73CE
:100A40002A2387F831302A2387F833302A2387F87E
:100A50003530002387F84D300023BB640CE007F1EC
:100A60000C02BB6C13441A7897F84D30534087F84A
:100A70004D30BB6C0133BB64BB6C2C2BEFD997F8AA
:100A80004D30DB09DAB297F84D309B09DBB25340A9
:100A9000DAB297F84D305B09DBB25340DAB297F81F
:100AA0004D301B09DBB25340DAB297F84D30DB080A
:100AB000DBB25340DAB297F84D309B08DBB25340BB
:100AC000DAB297F84D305B08DBB25340DAB297F8F0
:100AD0004D305340DBB203F0010387F84D3097F8F7
:100AE0004D305B0187F843303A7B97F8433013432E
:100AF000DBB23B731B4B186807F10C0100237A6CC7
:100B000003F048F9F863FB6B012B07D0154B18680D
:100B100007F10C0100237A6C03F03CF907F108039C
:100B2000796C184603F0FAFF97F84F30013387F8D5
:100B30004F3097F84F30092B7FF627AF002387F807
:100B40004F3097F84E30013387F84E3097F84E30DB
:100B5000092B7FF61AAF002387F84E3015E700BF48
:100B6000686A00085C01002080B592B000AF786030
:100B700004F0A2F90346FB6001237B64134B1B685E
:100B800007F110017A6C184603F09EFA38643B6C4A
:100B9000012B14D10E4B1B684FF0FF31184603F0A8
:100BA00073FB07F1100101232D220A4801F099FC83
:100BB000074B186800230022002103F0EBF807F12F
:100BC0000C03796C184603F0A9FFD7E75C010020FD
:100BD000640100209000002080B58AB000AF7860EA
:100BE00001237B620B4B1B6807F108017A6A1846E8
:100BF00003F06AFA38623B6A012B14BF0123002319
:100C0000DBB2FB77FB7F1A464FF40051024800F03D
:100C1000F7FCE7E76001002000080240B0B58CB0A7
:100C200000AF7860002387F82F300123BB62354A7C
:100C300007F124031268114619800233120C1A704E
:100C4000314B07F10C041D460FCD0FC495E803008E
:100C50002060043421702D4B1B68B96A184603F0DC
:100C600013FB97F82F30002B02D0012B19D041E055
:100C7000274801F0B1FF034687F8273097F827305F
:100C8000202B03D097F82730212B30D107F12403F4
:100C9000032219461E4801F0B6FC012387F82F30C5
:100CA00025E01B4801F098FF034687F8273097F8A6
:100CB0002730202B1DD197F824303B7797F825302B
:100CC0007B7797F82630BB7707F10C0101231522BB
:100CD0000F4801F006FC0F4B186807F10C010023C8
:100CE000BA6A03F057F8002387F82F3001E000BFFD
:100CF00000E000BF054B186800230022002103F02C
:100D000049F8A8E7986A00089C6A00086401002076
:100D1000900000206001002080B582B000AF002369
:100D20007B60124B5B6C114A43F4804353640F4B5E
:100D30005B6C03F480437B607B6800233B600B4B60
:100D40001B6C0A4A43F080531364084B1B6C03F07E
:100D500080533B603B6800220F216FF0010000F0E0
:100D60000FFA00BF0837BD4680BD00BF0038024003
:100D700080B58AB000AF786007F1140300221A60D2
:100D80005A609A60DA601A617B681B681D4A934258
:100D900034D100233B611C4B5B6C1B4A43F01003B6
:100DA0005364194B5B6C03F010033B613B690023F8
:100DB000FB60154B1B6B144A43F001031363124B8A
:100DC0001B6B03F00103FB60FB684FF4C0637B61A6
:100DD0000223BB610023FB6103233B6207237B6289
:100DE00007F114031946094800F086FA002205218C
:100DF000252000F0C5F9252000F0DEF900BF2837D6
:100E0000BD4680BD00100140003802400000024095
:100E100080B58CB000AF78600023FB620023BB621A
:100E200000227968322000F0ABF9322000F0C4F9DA
:100E30000023FB601E4B1B6C1D4A43F00803136428
:100E40001B4B1B6C03F00803FB60FB6807F11002EF
:100E500007F114031146184601F044F801F01AF89E
:100E6000F862FB6A134AA2FB03239B0C013BBB62A3
:100E7000114B124A1A60104B40F2E732DA600E4A08
:100E8000BB6A53600C4B00221A610B4B00229A6024
:100E9000094801F059F80346002B04D1064801F037
:100EA000ADF8034600E0012318463037BD4680BD4B
:100EB0000038024083DE1B4368010020000C004024
:100EC00080B400AFFEE780B400AFFEE780B400AFAF
:100ED000FEE780B400AFFEE780B400AFFEE780B469
:100EE00000AF00BFBD465DF8047B704780B500AF22
:100EF000024801F0B9FB00BF80BD00BF9000002098
:100F000080B500AF024801F0DBF800BF80BD00BF34
:100F10006801002080B400AF064BD3F88830054A42
:100F200043F47003C2F8883000BFBD465DF8047B0F
:100F3000704700BF00ED00E0DFF834D00D480E49E7
:100F40000E4A002302E0D458C4500433C4188C4223
:100F5000F9D30B4A0B4C002301E013600432A24288
:100F6000FBD3FFF7D7FF05F049FCFFF745FB7047C0
:100F7000000001200000002074000020906B000899
:100F800074000020CC4B0020FEE7000080B500AFCD
:100F90000E4B1B680D4A43F4007313600B4B1B6828
:100FA0000A4A43F480631360084B1B68074A43F402
:100FB00080731360032000F0D8F80F20FFF728FF9C
:100FC000FFF7AAFE0023184680BD00BF003C024088
:100FD00080B400AF064B1B781A46064B1B681344BF
:100FE000044A136000BFBD465DF8047B704700BF34
:100FF00008000020B001002080B400AF034B1B6844
:101000001846BD465DF8047B704700BFB001002064
:1010100080B485B000AF78607B6803F00703FB60A5
:101020000C4BDB68BB60BA684FF6FF031340BB6034
:10103000FB681A02BB68134343F0BF6343F40033F9
:10104000BB60044ABB68D36000BF1437BD465DF87F
:10105000047B704700ED00E080B400AF044BDB6818
:101060001B0A03F007031846BD465DF8047B704772
:1010700000ED00E080B483B000AF0346FB7197F948
:101080000730002B0BDBFB7903F01F02074997F9B0
:1010900007305B09012000FA02F241F8232000BF6B
:1010A0000C37BD465DF8047B704700BF00E100E0EF
:1010B00080B483B000AF03463960FB7197F9073005
:1010C000002B0ADB3B68DAB20C4997F907301201B2
:1010D000D2B20B4483F800230AE03B68DAB2084935
:1010E000FB7903F00F03043B1201D2B20B441A76D2
:1010F00000BF0C37BD465DF8047B704700E100E09F
:1011000000ED00E080B489B000AFF860B9607A60AB
:10111000FB6803F00703FB61FB69C3F10703042BC2
:1011200028BF0423BB61FB690433062B02D9FB698A
:10113000033B00E000237B614FF0FF32BB6902FA02
:1011400003F3DA43BB681A407B699A404FF0FF31E2
:101150007B6901FA03F3D9437B680B4013431846BC
:101160002437BD465DF8047B704780B582B000AF80
:1011700078607868FFF74CFF00BF0837BD4680BD38
:1011800080B586B000AF0346B9607A60FB73002378
:101190007B61FFF761FF78617A68B9687869FFF76A
:1011A000B1FF024697F90F3011461846FFF780FF4E
:1011B00000BF1837BD4680BD80B582B000AF034682
:1011C000FB7197F907301846FFF754FF00BF083747
:1011D000BD4680BD80B584B000AF78607B689B6DF4
:1011E000FB60FFF709FFB8607B6893F83530DBB22E
:1011F000022B08D07B6880225A657B68002283F826
:101200003420012352E07B681B681A687B681B68E6
:1012100022F016021A607B681B685A697B681B689B
:1012200022F080025A617B681B6C002B03D17B6823
:101230009B6C002B07D07B681B681A687B681B6857
:1012400022F008021A607B681B681A687B681B68BA
:1012500022F001021A6013E0FFF7CEFE0246BB68DF
:10126000D31A052B0CD97B6820225A657B68032290
:1012700083F835207B68002283F83420032315E0AF
:101280007B681B681B6803F00103002BE4D17B68BB
:10129000DB6D3F229A40FB689A607B68012283F8ED
:1012A00035207B68002283F834200023184610374D
:1012B000BD4680BD80B483B000AF78607B6893F892
:1012C0003530DBB2022B04D07B6880225A650123C3
:1012D0000CE07B68052283F835207B681B681A6860
:1012E0007B681B6822F001021A60002318460C3745
:1012F000BD465DF8047B704780B489B000AF78606C
:10130000396000237B6100233B610023BB61002324
:10131000FB6159E10122FB6902FA03F37B613B683F
:101320001B687A6913403B613A697B699A4240F0D5
:1013300048813B685B6803F00303012B05D03B68E1
:101340005B6803F00303022B30D17B689B68BB61B1
:10135000FB695B00032202FA03F3DB43BA69134023
:10136000BB613B68DA68FB695B0002FA03F3BA69A8
:101370001343BB617B68BA699A607B685B68BB6139
:101380000122FB6902FA03F3DB43BA691340BB6134
:101390003B685B681B0903F00102FB6902FA03F377
:1013A000BA691343BB617B68BA695A603B685B6882
:1013B00003F00303032B17D07B68DB68BB61FB6979
:1013C0005B00032202FA03F3DB43BA691340BB61FB
:1013D0003B689A68FB695B0002FA03F3BA6913433E
:1013E000BB617B68BA69DA603B685B6803F0030342
:1013F000022B23D1FB69DA087B68083253F82230CC
:10140000BB61FB6903F007039B000F2202FA03F3A1
:10141000DB43BA691340BB613B681A69FB6903F09F
:1014200007039B0002FA03F3BA691343BB61FB692C
:10143000DA087B680832B96943F822107B681B68B8
:10144000BB61FB695B00032202FA03F3DB43BA6969
:101450001340BB613B685B6803F00302FB695B0000
:1014600002FA03F3BA691343BB617B68BA691A6075
:101470003B685B6803F44033002B00F0A28000233C
:10148000FB60574B5B6C564A43F480435364544BA8
:101490005B6C03F48043FB60FB68524AFB699B086A
:1014A000023352F82330BB61FB6903F003039B0056
:1014B0000F2202FA03F3DB43BA691340BB617B6876
:1014C000494A934219D07B68484A934213D07B68BB
:1014D000474A93420DD07B68464A934207D07B68C7
:1014E000454A934201D1042308E0072306E0032381
:1014F00004E0022302E0012300E00023FA6902F085
:10150000030292009340BA691343BB613549FB69FA
:101510009B080233BA6941F82320384B9B68BB61B2
:101520003B69DB43BA691340BB613B685B6803F40A
:101530008013002B03D0BA693B691343BB612F4A68
:10154000BB6993602D4BDB68BB613B69DB43BA69C8
:101550001340BB613B685B6803F40013002B03D0AE
:10156000BA693B691343BB61244ABB69D360234B0F
:101570005B68BB613B69DB43BA691340BB613B6895
:101580005B6803F40033002B03D0BA693B69134353
:10159000BB611A4ABB695360184B1B68BB613B694E
:1015A000DB43BA691340BB613B685B6803F480337B
:1015B000002B03D0BA693B691343BB610F4ABB6977
:1015C0001360FB690133FB61FB690F2B7FF6A2AE51
:1015D00000BF00BF2437BD465DF8047B704700BFE5
:1015E0000038024000380140000002400004024080
:1015F00000080240000C024000100240003C014084
:1016000080B483B000AF78600B467B8013467B705C
:101610007B78002B03D07A887B689A6103E07B8813
:101620001A047B689A6100BF0C37BD465DF8047BE5
:101630007047000080B586B000AF78607B68002BF3
:1016400001D1012367E27B681B6803F00103002BD3
:1016500075D0884B9B6803F00C03042B0CD0854B92
:101660009B6803F00C03082B12D1824B5B6803F4D8
:101670008003B3F5800F0BD17E4B1B6803F400335E
:10168000002B5BD07B685B68002B57D1012342E2C3
:101690007B685B68B3F5803F06D1764B1B68754A63
:1016A00043F4803313601DE07B685B68B3F5A02FC3
:1016B0000CD1704B1B686F4A43F4802313606D4B51
:1016C0001B686C4A43F4803313600BE0694B1B6862
:1016D000684A23F480331360664B1B68654A23F421
:1016E000802313607B685B68002B13D0FFF784FCBA
:1016F000386108E0FFF780FC02463B69D31A642B8F
:1017000001D9032307E25B4B1B6803F40033002B72
:10171000F0D014E0FFF770FC386108E0FFF76CFCD4
:1017200002463B69D31A642B01D90323F3E1514BE1
:101730001B6803F40033002BF0D100E000BF7B688E
:101740001B6803F00203002B63D04A4B9B6803F035
:101750000C03002B0BD0474B9B6803F00C03082BAA
:101760001CD1444B5B6803F48003002B16D1414B22
:101770001B6803F00203002B05D07B68DB68012B9C
:1017800001D00123C7E13B4B1B6823F0F8027B68C3
:101790001B69DB00374913430B603AE07B68DB6869
:1017A000002B20D0344B01221A60FFF725FC386152
:1017B00008E0FFF721FC02463B69D31A022B01D94E
:1017C0000323A8E12B4B1B6803F00203002BF0D08E
:1017D000284B1B6823F0F8027B681B69DB00254956
:1017E00013430B6015E0244B00221A60FFF704FC42
:1017F000386108E0FFF700FC02463B69D31A022B70
:1018000001D9032387E11B4B1B6803F00203002B64
:10181000F0D17B681B6803F00803002B36D07B688F
:101820005B69002B16D0154B01221A60FFF7E4FB11
:10183000386108E0FFF7E0FB02463B69D31A022B50
:1018400001D9032367E10B4B5B6F03F00203002B0D
:10185000F0D01BE0094B00221A60FFF7CDFB386186
:101860000EE0FFF7C9FB02463B69D31A022B07D9EA
:10187000032350E10038024000004742800E4742F7
:10188000884B5B6F03F00203002BEAD17B681B6877
:1018900003F00403002B00F097800023FB75814BBD
:1018A0001B6C03F08053002B0FD10023BB607D4BDA
:1018B0001B6C7C4A43F0805313647A4B1B6C03F01F
:1018C0008053BB60BB680123FB75774B1B6803F437
:1018D0008073002B18D1744B1B68734A43F48073D8
:1018E0001360FFF789FB386108E0FFF785FB0246CC
:1018F0003B69D31A022B01D903230CE16A4B1B6805
:1019000003F48073002BF0D07B689B68012B06D119
:10191000644B1B6F634A43F0010313671CE07B6851
:101920009B68052B0CD15F4B1B6F5E4A43F0040391
:1019300013675C4B1B6F5B4A43F0010313670BE0BB
:10194000584B1B6F574A23F001031367554B1B6F0E
:10195000544A23F0040313677B689B68002B15D05F
:10196000FFF74AFB38610AE0FFF746FB02463B6996
:10197000D31A41F28832934201D90323CBE0494B79
:101980001B6F03F00203002BEED014E0FFF734FBD3
:1019900038610AE0FFF730FB02463B69D31A41F297
:1019A0008832934201D90323B5E03E4B1B6F03F00D
:1019B0000203002BEED1FB7D012B05D1394B1B6CB3
:1019C000384A23F0805313647B689B69002B00F036
:1019D000A180344B9B6803F00C03082B5CD07B6820
:1019E0009B69022B41D1314B00221A60FFF704FBA7
:1019F000386108E0FFF700FB02463B69D31A022B6F
:101A000001D9032387E0274B1B6803F00073002BE9
:101A1000F0D17B68DA697B681B6A1A437B685B6A72
:101A20009B011A437B689B6A5B08013B1B041A43BA
:101A30007B68DB6A1B061B4913434B601B4B01226F
:101A40001A60FFF7D9FA386108E0FFF7D5FA0246C5
:101A50003B69D31A022B01D903235CE0114B1B68AD
:101A600003F00073002BF0D054E0104B00221A60FA
:101A7000FFF7C2FA386108E0FFF7BEFA02463B6999
:101A8000D31A022B01D9032345E0064B1B6803F050
:101A90000073002BF0D13DE07B689B69012B07D1DF
:101AA000012338E0003802400070004060004742E7
:101AB0001B4B5B68FB607B689B69012B28D0FB6834
:101AC00003F480027B68DB699A4221D1FB6803F052
:101AD0003F027B681B6A9A421AD1FA6847F6C073C4
:101AE00013407A68526A9201934211D1FB6803F461
:101AF00040327B689B6A5B08013B1B049A4207D11A
:101B0000FB6803F070627B68DB6A1B069A4201D0B7
:101B1000012300E0002318461837BD4680BD00BFF2
:101B20000038024080B584B000AF786039607B68CF
:101B3000002B01D10123CCE0684B1B6803F00703A5
:101B40003A689A420CD9654B3A68D2B21A70634B24
:101B50001B6803F007033A689A4201D00123B8E0FA
:101B60007B681B6803F00203002B20D07B681B6896
:101B700003F00403002B05D0594B9B68584A43F4EB
:101B8000E05393607B681B6803F00803002B05D0CB
:101B9000534B9B68524A43F460439360504B9B689D
:101BA00023F0F0027B689B684D4913438B607B6890
:101BB0001B6803F00103002B44D07B685B68012B9A
:101BC00007D1474B1B6803F40033002B19D10123C5
:101BD0007FE07B685B68022B03D07B685B68032B2C
:101BE00007D13F4B1B6803F00073002B09D1012381
:101BF0006FE03B4B1B6803F00203002B01D1012374
:101C000067E0374B9B6823F003027B685B683449CD
:101C100013438B60FFF7F0F9F8600AE0FFF7ECF987
:101C20000246FB68D31A41F28832934201D903235A
:101C30004FE02B4B9B6803F00C027B685B689B00BA
:101C40009A42EBD1254B1B6803F007033A689A428E
:101C50000CD2224B3A68D2B21A70204B1B6803F0A8
:101C600007033A689A4201D0012332E07B681B687F
:101C700003F00403002B08D0194B9B6823F4E052B7
:101C80007B68DB68164913438B607B681B6803F035
:101C90000803002B09D0124B9B6823F460427B6839
:101CA0001B69DB000E4913438B6000F021F80246EC
:101CB0000B4B9B681B0903F00F030A49CB5C22FA0C
:101CC00003F3094A1360094B1B681846FFF7A0F895
:101CD000002318461037BD4680BD00BF003C0240BF
:101CE00000380240086B00080000002004000020BB
:101CF0002DE9B04F90B000AF00237B630023FB635E
:101D000000233B630023BB63594B9B6803F00C0328
:101D1000082B0DD0082B00F2A180002B02D0042B41
:101D200003D09BE0534BBB639BE0534BBB6398E0FA
:101D30004F4B5B6803F03F037B634D4B5B6803F4E1
:101D40008003002B28D04A4B5B689B0900223B6232
:101D50007A623B6AC3F308000021474B03FB01F2A0
:101D6000002300FB03F31344434AA0FB0212FA6270
:101D70000A46BA62FA6A1344FB627B6B0022BB61BB
:101D8000FA61D7E90623D7E90A01FEF729FA0246E4
:101D90000B461346FB6353E0354B5B689B090022FF
:101DA0003B617A613B69C3F3080A4FF0000B52466E
:101DB0005B464FF000004FF00001590141EAD2614B
:101DC000500102460B46B2EB0A0863EB0B094FF0D9
:101DD00000024FF000034FEA891343EA98634FEA89
:101DE0008812B2EB080463EB09054FF000024FF0D4
:101DF0000003EB0043EA5473E20014461D4614EB63
:101E00000A033B6045EB0B037B604FF000024FF091
:101E10000003D7E9004529468B02214643EA915346
:101E200021468A02104619467B6B0022BB60FA608D
:101E3000D7E90223FEF7D4F902460B461346FB63AB
:101E40000B4B5B681B0C03F0030301335B003B632C
:101E5000FA6B3B6BB2FBF3F3BB6302E0054BBB6376
:101E600000BFBB6B18464037BD46BDE8B08F00BF12
:101E7000003802400024F40040787D0180B400AFB7
:101E8000034B1B681846BD465DF8047B704700BFD6
:101E90000000002080B500AFFFF7F0FF0246054BC1
:101EA0009B689B0A03F007030349CB5C22FA03F308
:101EB000184680BD00380240186B000880B500AF9E
:101EC000FFF7DCFF0246054B9B685B0B03F0070343
:101ED0000349CB5C22FA03F3184680BD0038024068
:101EE000186B000880B483B000AF786039607B68FD
:101EF0000F221A60124B9B6803F003027B685A6042
:101F00000F4B9B6803F0F0027B689A600C4B9B6858
:101F100003F4E0527B68DA60094B9B68DB0803F44A
:101F2000E0527B681A61074B1B6803F007023B68AD
:101F30001A6000BF0C37BD465DF8047B704700BFD8
:101F400000380240003C024080B582B000AF7860AB
:101F50007B68002B01D1012341E07B6893F83D3081
:101F6000DBB2002B06D17B68002283F83C20786826
:101F700000F039F87B68022283F83D207B681A68FC
:101F80007B6804331946104600F0CAF97B680122C9
:101F900083F846207B68012283F83E207B6801227B
:101FA00083F83F207B68012283F840207B68012270
:101FB00083F841207B68012283F842207B6801225C
:101FC00083F843207B68012283F844207B68012248
:101FD00083F845207B68012283F83D2000231846C2
:101FE0000837BD4680BD80B483B000AF786000BFC5
:101FF0000C37BD465DF8047B7047000080B485B0A7
:1020000000AF78607B6893F83D30DBB2012B01D0E4
:10201000012344E07B68022283F83D207B681B6833
:10202000DA687B681B6842F00102DA607B681B6833
:102030001E4A934218D07B681B68B3F1804F13D0BF
:102040007B681B681A4A93420ED07B681B68194A4A
:10205000934209D07B681B68174A934204D07B687F
:102060001B68164A934211D17B681B689B6803F07A
:102070000703FB60FB68062B10D07B681B681A689F
:102080007B681B6842F001021A6007E07B681B68EE
:102090001A687B681B6842F001021A600023184628
:1020A0001437BD465DF8047B704700BF0000014057
:1020B0000004004000080040000C004000400140C7
:1020C00080B582B000AF78607B681B681B6903F045
:1020D0000203022B22D17B681B68DB6803F002033A
:1020E000022B1BD17B681B686FF002021A617B68B0
:1020F00001221A777B681B689B6903F00303002B9E
:1021000003D0786800F0EEF805E0786800F0E0F8B9
:10211000786800F0F1F87B6800221A777B681B680A
:102120001B6903F00403042B22D17B681B68DB6866
:1021300003F00403042B1BD17B681B686FF00402BF
:102140001A617B6802221A777B681B689B6903F41B
:102150004073002B03D0786800F0C4F805E078687D
:1021600000F0B6F8786800F0C7F87B6800221A77AC
:102170007B681B681B6903F00803082B22D17B686E
:102180001B68DB6803F00803082B1BD17B681B6806
:102190006FF008021A617B6804221A777B681B685B
:1021A000DB6903F00303002B03D0786800F09AF892
:1021B00005E0786800F08CF8786800F09DF87B689E
:1021C00000221A777B681B681B6903F01003102B31
:1021D00022D17B681B68DB6803F01003102B1BD136
:1021E0007B681B686FF010021A617B6808221A77FF
:1021F0007B681B68DB6903F44073002B03D07868AD
:1022000000F070F805E0786800F062F8786800F097
:1022100073F87B6800221A777B681B681B6903F0E0
:102220000103012B0ED17B681B68DB6803F00103FF
:10223000012B07D17B681B686FF001021A61786877
:10224000FEF70AFB7B681B681B6903F08003802B89
:102250000ED17B681B68DB6803F08003802B07D1FD
:102260007B681B686FF080021A61786800F0E2F802
:102270007B681B681B6903F04003402B0ED17B6811
:102280001B68DB6803F04003402B07D17B681B68A9
:102290006FF040021A61786800F038F87B681B68BC
:1022A0001B6903F02003202B0ED17B681B68DB68C1
:1022B00003F02003202B07D17B681B686FF02002FE
:1022C0001A61786800F0ACF800BF0837BD4680BDE1
:1022D00080B483B000AF786000BF0C37BD465DF8B6
:1022E000047B704780B483B000AF786000BF0C37C8
:1022F000BD465DF8047B704780B483B000AF786062
:1023000000BF0C37BD465DF8047B704780B483B0D6
:1023100000AF786000BF0C37BD465DF8047B7047A6
:1023200080B485B000AF786039607B681B68FB6063
:102330007B68344A93420FD07B68B3F1804F0BD057
:102340007B68314A934207D07B68304A934203D07E
:102350007B682F4A934208D1FB6823F07003FB602F
:102360003B685B68FA681343FB607B68254A9342CD
:102370001BD07B68B3F1804F17D07B68224A934211
:1023800013D07B68214A93420FD07B68204A934246
:102390000BD07B681F4A934207D07B681E4A93424A
:1023A00003D07B681D4A934208D1FB6823F4407335
:1023B000FB603B68DB68FA681343FB60FB6823F053
:1023C00080023B685B691343FB607B68FA681A60B4
:1023D0003B689A687B68DA623B681A687B689A6235
:1023E0007B68084A934203D13B681A697B681A6389
:1023F0007B6801225A6100BF1437BD465DF8047B3B
:10240000704700BF00000140000400400008004089
:10241000000C0040004001400044014000480140E1
:1024200080B483B000AF786000BF0C37BD465DF864
:10243000047B704780B483B000AF786000BF0C3776
:10244000BD465DF8047B704780B582B000AF786010
:102450007B68002B01D101233FE07B6893F83D307E
:10246000DBB2002B06D17B68002283F83C20786821
:10247000FEF77EFC7B68242283F83D207B681B6886
:10248000DA687B681B6822F40052DA60786800F032
:1024900007FE7B681B681A697B681B6822F4904200
:1024A0001A617B681B685A697B681B6822F02A02E4
:1024B0005A617B681B68DA687B681B6842F40052CB
:1024C000DA607B6800221A647B68202283F83D2052
:1024D0007B68202283F83E20002318460837BD463B
:1024E00080BD80B58AB002AFF860B9603B6013462A
:1024F000FB8000237B61FB6893F83D30DBB2202B2F
:102500007CD1BB68002B02D0FB88002B01D10123BA
:1025100075E0FB6893F83C30012B01D102236EE09B
:10252000FB68012283F83C20FB6800221A64FB68E8
:10253000212283F83D20FEF75FFD7861FB68FA8871
:102540009A84FB68FA88DA84FB689B68B3F5805F3D
:1025500008D1FB681B69002B04D10023FB61BB6819
:10256000BB6103E0BB68FB610023BB61FB68002229
:1025700083F83C202AE03B6800937B69002280219D
:10258000F86800F047FB0346002B01D0032336E038
:10259000FB69002B0BD1BB691B881A46FB681B68C3
:1025A000C2F308025A60BB690233BB6107E0FB69F2
:1025B0001A78FB681B685A60FB690133FB61FB6892
:1025C000DB8C9BB2013B9AB2FB68DA84FB68DB8C44
:1025D0009BB2002BCFD13B6800937B690022402146
:1025E000F86800F017FB0346002B01D0032306E038
:1025F000FB68202283F83D20002300E002231846D8
:102600002037BD4680BD80B584B000AFF860B960AA
:102610001346FB80FB6893F83E30DBB2202B1DD1C4
:10262000BB68002B02D0FB88002B01D1012316E0F0
:10263000FB6893F83C30012B01D102230FE0FB68CB
:10264000012283F83C20FB6800221A63FB881A46AB
:10265000B968F86800F04CFB034600E00223184616
:102660001037BD4680BD000080B5BAB000AF7860BD
:102670007B681B681B68C7F8E4307B681B68DB68F5
:10268000C7F8E0307B681B685B69C7F8DC30002363
:10269000C7F8D8300023C7F8D430D7F8E43003F0B7
:1026A0000F03C7F8D830D7F8D830002B0FD1D7F8A0
:1026B000E43003F02003002B09D0D7F8E03003F01A
:1026C0002003002B03D0786800F02FFC56E2D7F8E7
:1026D000D830002B00F0DE80D7F8DC3003F00103A7
:1026E000002B06D1D7F8E03003F49073002B00F0F4
:1026F000D180D7F8E43003F00103002B0BD0D7F8DA
:10270000E03003F48073002B05D07B681B6C43F032
:1027100001027B681A64D7F8E43003F00403002B4D
:102720000BD0D7F8DC3003F00103002B05D07B6819
:102730001B6C43F002027B681A64D7F8E43003F0A4
:102740000203002B0BD0D7F8DC3003F00103002B81
:1027500005D07B681B6C43F004027B681A64D7F8D1
:10276000E43003F00803002B11D0D7F8E03003F079
:102770002003002B05D1D7F8DC3003F00103002B38
:1027800005D07B681B6C43F008027B681A647B6889
:102790001B6C002B00F0ED81D7F8E43003F0200330
:1027A000002B08D0D7F8E03003F02003002B02D034
:1027B000786800F0BAFB7B681B685B6903F0400334
:1027C000402B0CBF01230023DBB2C7F8D4307B6859
:1027D0001B6C03F00803002B03D1D7F8D430002B77
:1027E0004FD0786800F0C2FA7B681B685B6903F021
:1027F0004003402B41D17B681B681433C7F89C30E1
:10280000D7F89C3053E8003FC7F89830D7F8983095
:1028100023F04003C7F8D0307B681B681433D7F827
:10282000D020C7F8A820C7F8A430D7F8A410D7F84C
:10283000A82041E80023C7F8A030D7F8A030002B2B
:10284000D9D17B689B6B002B13D07B689B6B7D4A37
:102850001A657B689B6B1846FEF72CFD0346002B20
:1028600016D07B689B6B1B6D7A68926B10469847FD
:102870000EE0786800F09AF90AE0786800F096F9BE
:1028800006E0786800F092F97B6800221A6470E133
:1028900000BF6EE17B681B6B012B40F04A81D7F8CB
:1028A000E43003F01003002B00F04381D7F8E03050
:1028B00003F01003002B00F03C810023BB607B6819
:1028C0001B681B68BB607B681B685B68BB60BB6880
:1028D0007B681B685B6903F04003402B40F0B480C9
:1028E0007B689B6B1B685B68A7F8BE30B7F8BE308F
:1028F000002B00F040817B689B8DB7F8BE209A4288
:1029000080F039817B68B7F8BE20DA857B689B6BE5
:10291000DB69B3F5807F00F088807B681B680C332F
:10292000C7F88830D7F8883053E8003FC7F88430BC
:10293000D7F8843023F48073C7F8B8307B681B68FD
:102940000C33D7F8B820C7F89420C7F89030D7F8E0
:102950009010D7F8942041E80023C7F88C30D7F8BE
:102960008C30002BD9D17B681B6814337B677B6F5D
:1029700053E8003F3B673B6F23F00103C7F8B430D7
:102980007B681B681433D7F8B420C7F88020FB6736
:10299000F96FD7F8802041E80023BB67BB6F002B9D
:1029A000E1D17B681B6814333B663B6E53E8003F04
:1029B000FB65FB6D23F04003C7F8B0307B681B68F4
:1029C0001433D7F8B020FA66BB66B96EFA6E41E8E8
:1029D00000237B667B6E002BE3D17B68202283F88B
:1029E0003E207B6800221A637B681B680C33FB6403
:1029F000FB6C53E8003FBB64BB6C23F01003C7F8CB
:102A0000AC307B681B680C33D7F8AC20BA657B65AB
:102A1000796DBA6D41E800233B653B6D002BE3D136
:102A20007B689B6B1846FEF7D5FB7B689A8D7B68AD
:102A3000DB8D9BB2D31A9BB21946786800F0C0F8C0
:102A400099E000BF332E00087B689A8D7B68DB8D90
:102A50009BB2D31AA7F8CE307B68DB8D9BB2002BDC
:102A600000F08B80B7F8CE30002B00F086807B68BA
:102A70001B680C33BB63BB6B53E8003F7B637B6B12
:102A800023F49073C7F8C8307B681B680C33D7F801
:102A9000C8207A643B64396C7A6C41E80023FB639C
:102AA000FB6B002BE3D17B681B6814337B627B6A72
:102AB00053E8003F3B623B6A23F00103C7F8C43090
:102AC0007B681B681433D7F8C4203A63FB62F96A49
:102AD0003A6B41E80023BB62BB6A002BE3D17B6801
:102AE000202283F83E207B6800221A637B681B68E3
:102AF0000C333B613B6953E8003FFB60FB6823F00C
:102B00001003C7F8C0307B681B680C33D7F8C020AF
:102B1000FA61BB61B969FA6941E800237B617B69AD
:102B2000002BE3D1B7F8CE301946786800F048F8AA
:102B300023E0D7F8E43003F08003002B09D0D7F866
:102B4000E03003F08003002B03D0786800F085F9B3
:102B500014E0D7F8E43003F04003002B0ED0D7F890
:102B6000E03003F04003002B08D0786800F0C5F98E
:102B700004E000BF02E000BF00E000BFE837BD4650
:102B800080BD00BF80B483B000AF786000BF0C3759
:102B9000BD465DF8047B704780B483B000AF7860B9
:102BA00000BF0C37BD465DF8047B704780B483B02E
:102BB00000AF786000BF0C37BD465DF8047B7047FE
:102BC00080B483B000AF78600B467B8000BF0C37C9
:102BD000BD465DF8047B704780B485B000AF786077
:102BE0000023FB600023BB607B6893F83D30DBB2C1
:102BF000FB607B6893F83E30DBB2BB60FB68DAB207
:102C0000BB68DBB21343DBB218461437BD465DF830
:102C1000047B704780B590B000AFF860B9603B604E
:102C20001346FB7150E0BB6CB3F1FF3F4CD0BB6C63
:102C3000002B07D0FEF7E0F902463B68D31ABA6CC6
:102C40009A4241D2FB681B680C33BB62BB6A53E8F3
:102C5000003F7B627B6A23F4D073FB63FB681B68D5
:102C60000C33FA6B7A633B63396B7A6B41E8002370
:102C7000FB62FB6A002BE5D1FB681B6814337B61A8
:102C80007B6953E8003F3B613B6923F00103BB6371
:102C9000FB681B681433BA6B3A62FB61F9693A6AE4
:102CA00041E80023BB61BB69002BE5D1FB68202212
:102CB00083F83D20FB68202283F83E20FB68002239
:102CC00083F83C2003230FE0FB681B681A68BB688D
:102CD0001340BA689A420CBF01230023DBB21A46A4
:102CE000FB799A429FD0002318464037BD4680BDED
:102CF00080B485B000AFF860B9601346FB80FB6814
:102D0000BA689A62FB68FA889A85FB68FA88DA855D
:102D1000FB6800221A64FB68222283F83E20FB68CD
:102D2000002283F83C20FB681B69002B07D0FB685E
:102D30001B68DA68FB681B6842F48072DA60FB6823
:102D40001B685A69FB681B6842F001025A61FB6804
:102D50001B68DA68FB681B6842F02002DA60002317
:102D600018461437BD465DF8047B704780B495B0B3
:102D700000AF78607B681B680C337B637B6B53E828
:102D8000003F3B633B6B23F49073FB647B681B68E1
:102D90000C33FA6C3A64FB63F96B3A6C41E800233C
:102DA000BB63BB6B002BE5D17B681B6814333B62B4
:102DB0003B6A53E8003FFB61FB6923F00103BB64FE
:102DC0007B681B681433BA6CFA62BB62B96AFA6A30
:102DD00041E800237B627B6A002BE5D17B681B6B9B
:102DE000012B19D17B681B680C33FB60FB6853E82F
:102DF000003FBB60BB6823F010037B647B681B68EB
:102E00000C337A6CBA617B617969BA6941E8002355
:102E10003B613B69002BE5D17B68202283F83E2093
:102E20007B6800221A6300BF5437BD465DF8047BFF
:102E3000704780B584B000AF78607B689B6BFB60A7
:102E4000FB680022DA85FB680022DA84F868FFF765
:102E5000ADFE00BF1037BD4680BD80B485B000AF69
:102E600078607B6893F83D30DBB2212B3ED17B68E4
:102E70009B68B3F5805F14D17B681B69002B10D170
:102E80007B681B6AFB60FB681B881A467B681B68B3
:102E9000C2F308025A607B681B6A9A1C7B681A623C
:102EA00008E07B681B6A591C7A6811621A787B6893
:102EB0001B685A607B68DB8C9BB2013B9BB27A68D3
:102EC0001946D184002B0FD17B681B68DA687B68B8
:102ED0001B6822F08002DA607B681B68DA687B6816
:102EE0001B6842F04002DA60002300E0022318462B
:102EF0001437BD465DF8047B704780B582B000AFE3
:102F000078607B681B68DA687B681B6822F0400287
:102F1000DA607B68202283F83D207868FFF732FE74
:102F2000002318460837BD4680BD80B58CB000AF81
:102F300078607B6893F83E30DBB2222B40F0AB80A8
:102F40007B689B68B3F5805F17D17B681B69002B9A
:102F500013D10023FB627B689B6ABB627B681B68A2
:102F60005B689BB2C3F308039AB2BB6A1A807B68A2
:102F70009B6A9A1C7B689A6226E07B689B6AFB626C
:102F80000023BB627B689B68B3F5805F07D07B68DA
:102F90009B68002B0AD17B681B69002B06D17B68DC
:102FA0001B685B68DAB2FB6A1A7008E07B681B6812
:102FB0005B68DBB203F07F03DAB2FB6A1A707B68EE
:102FC0009B6A5A1C7B689A627B68DB8D9BB2013BD3
:102FD0009BB27A681946D185002B5AD17B681B6851
:102FE000DA687B681B6822F02002DA607B681B6865
:102FF000DA687B681B6822F48072DA607B681B6881
:103000005A697B681B6822F001025A617B682022A2
:1030100083F83E207B681B6B012B35D17B68002237
:103020001A637B681B680C337B617B6953E8003F44
:103030003B613B6923F010037B627B681B680C33A8
:103040007A6A3A62FB61F9693A6A41E80023BB6136
:10305000BB69002BE5D17B681B681B6803F010037C
:10306000102B0AD10023FB607B681B681B68FB6088
:103070007B681B685B68FB60FB687B689B8D1946FF
:103080007868FFF79DFD02E07868FFF785FD002373
:1030900002E0002300E0022318463037BD4680BD21
:1030A0002DE9B04FC0B000AFC7F8F400D7F8F43046
:1030B0001B681B6923F44050D7F8F430D968D7F85F
:1030C000F4301A6840EA01031361D7F8F4309A68C3
:1030D000D7F8F4301B691A43D7F8F4305B691A4308
:1030E000D7F8F430DB691343C7F8F830D7F8F43079
:1030F0001B68DB6823F4164121F00C01D7F8F4308B
:103100001A68D7F8F8300B43D360D7F8F4301B684F
:103110005B6923F44070D7F8F4309969D7F8F4303C
:103120001A6840EA01035361D7F8F4301A688F4BEC
:103130009A4205D0D7F8F4301A688D4B9A4204D1E0
:10314000FEF7BCFEC7F8FC0003E0FEF7A3FEC7F8DD
:10315000FC00D7F8F430DB69B3F5004F40F00C8188
:10316000D7F8FC300022C7F8E830C7F8EC20D7E9E0
:103170003A4522462B469118B9655B41FB65D7E974
:103180001623214612EB0108294643EB01094FF0B3
:1031900000024FF000034FEAC90343EA58734FEAB5
:1031A000C80290469946234618EB0303C7F8E0305F
:1031B0002B4649EB0303C7F8E430D7F8F4305B68DB
:1031C0000022C7F8D830C7F8DC20D7E936120B4602
:1031D000DB183B65134642EB03037B65D7E91423F9
:1031E000D7E93801FCF7FCFF02460B46614BA3FB15
:1031F00002235B091C01D7F8FC300022C7F8D0304D
:10320000C7F8D420D7E9348942464B469118B964AF
:103210005B41FB64D7E91223414612EB010A4946A0
:1032200043EB010B4FF000024FF000034FEACB03DA
:1032300043EA5A734FEACA0292469B4643461AEB48
:103240000303C7F8C8304B464BEB0303C7F8CC3039
:10325000D7F8F4305B680022C7F8C030C7F8C42044
:10326000D7E930120B46DB183B64134642EB0303ED
:103270007B64D7E91023D7E93201FCF7B1FF02469E
:103280000B4611463B4BA3FB01235B09642202FB67
:1032900003F3CB1ADB0003F13202364BA3FB02230C
:1032A0005B095B0003F4F8731C44D7F8FC30002280
:1032B000C7F8B830C7F8BC20D7E92E8942464B463C
:1032C0009118B9635B41FB63D7E90E23414651185E
:1032D000396349464B417B634FF000024FF00003D6
:1032E000D7E90CAB5946CB00514643EA51735146DE
:1032F000CA0010461946034642469B18C7F8B0302C
:103300004B460A4642EB0303C7F8B430D7F8F43013
:103310005B680022C7F8A830C7F8AC20D7E92A12AA
:103320000B46DB18BB62134642EB0303FB62D7E993
:103330000A23D7E92C01FCF753FF02460B460D4B3D
:10334000A3FB02135B09642101FB03F3D31ADB0027
:103350003233084AA2FB03235B0903F00702D7F8C4
:10336000F4301B6822449A6005E100BF0010014060
:10337000001401401F85EB51D7F8FC300022C7F83C
:10338000A030C7F8A420D7E9288942464B469118B7
:1033900039625B417B62D7E90823414654184946AC
:1033A00043EB01054FF000024FF00003EB0043EA4E
:1033B0005473E20014461D464346E318C7F898309C
:1033C0004B4645EB0303C7F89C30D7F8F4305B68F5
:1033D0000022C7F89030C7F894204FF000024FF059
:1033E0000003D7E9244529468B00214643EA91731F
:1033F00021468A00D7E92601FCF7F2FE02460B4679
:10340000604BA3FB02235B091C01D7F8FC300022B0
:10341000C7F88830C7F88C20D7E9228942464B4646
:103420009118B9615B41FB61D7E906234146511808
:10343000396149464B417B614FF000024FF0000378
:10344000D7E904AB5946CB00514643EA5173514684
:10345000CA0010461946034642469B18C7F88030FA
:103460004B460A4642EB0303C7F88430D7F8F430E2
:103470005B680022BB67FA674FF000024FF0000361
:10348000D7E91E8949468B00414643EA917341467C
:103490008A00D7E92001FCF7A3FE02460B46394B10
:1034A000A3FB02135B09642101FB03F3D31A1B0185
:1034B0003233344AA2FB03235B0903F0F0031C44BC
:1034C000D7F8FC3000223B677A67D7E91C8942466F
:1034D0004B469118B9605B41FB60D7E90223414636
:1034E0005118396049464B417B604FF000024FF064
:1034F0000003D7E900AB5946CB00514643EA51736C
:103500005146CA0010461946034642469B18BB6600
:103510004B460A4642EB0303FB66D7F8F4305B6880
:1035200000223B667A664FF000024FF00003D7E9B5
:10353000188949468B00414643EA917341468A0007
:10354000D7E91A01FCF74CFE02460B460D4BA3FBD4
:1035500002135B09642101FB03F3D31A1B0132330D
:10356000084AA2FB03235B0903F00F02D7F8F430EB
:103570001B6822449A6000BF07F58077BD46BDE80E
:10358000B08F00BF1F85EB5180B483B000AF0346FE
:103590003960FB7197F90730002B0ADB3B68DAB220
:1035A0000C4997F907301201D2B20B4483F800237B
:1035B0000AE03B68DAB20849FB7903F00F03043BE9
:1035C0001201D2B20B441A7600BF0C37BD465DF82B
:1035D000047B704700E100E000ED00E080B500AF43
:1035E000054B1B6801F0A8FF0346012B01D002F038
:1035F0008BFE00BF80BD00BF10E000E080B500AFD3
:1036000000216FF00400FFF7BFFF00BF80BD000086
:1036100080B483B000AFEFF305833B603B68002BC1
:1036200003D06FF005037B600CE00A4B1B68002B96
:1036300005D1084B01221A6000237B6002E04FF0A5
:10364000FF337B607B6818460C37BD465DF8047B12
:10365000704700BFB401002080B582B000AFEFF327
:1036600005833B603B68002B03D06FF005037B6054
:1036700010E00B4B1B68012B09D1FFF7BFFF084B74
:1036800002221A6001F0FCFA00237B6002E04FF096
:10369000FF337B607B6818460837BD4680BD00BF9E
:1036A000B401002080B58EB004AFF860B9607A60D4
:1036B00000233B61EFF305837B617B69002B7ED1A7
:1036C000FB68002B7BD080233B621823FB61002327
:1036D0007B624FF0FF33BB617B68002B45D07B687A
:1036E0001B68002B02D07B681B687B627B689B6930
:1036F000002B02D07B689B69FB61FB69002B08D023
:10370000FB69382B05D87B685B6803F00103002B4D
:1037100001D0002354E07B685B69002B03D07B68F9
:103720005B699B083B627B689B68002B0ED07B68C3
:10373000DB68BB2B0AD97B681B69002B06D07B6832
:103740005B69002B02D00123BB6110E07B689B68A2
:10375000002B0CD17B68DB68002B08D17B681B69D0
:10376000002B04D10023BB6101E00023BB61BB69D6
:10377000012B10D17B681B697A68926802920193D1
:10378000FB690093BB683A6A796AF86801F00EF841
:1037900003463B6113E0BB69002B10D13B6A9AB230
:1037A00007F110030193FB690093BB68796AF8681D
:1037B00001F059F80346012B01D000233B613B691E
:1037C00018462837BD4680BD80B584B000AF78600C
:1037D000EFF30583BB60BB68002B03D06FF00503DC
:1037E000FB6007E00023FB607B68002B02D0786859
:1037F00001F012FAFB6818461037BD4680BD80B54F
:103800008AB002AFF860B9607A600023FB61EFF321
:1038100005833B613B69002B5FD1FB68002B5CD0CB
:10382000BB68002B59D04FF0FF33BB617B68002B86
:1038300029D07B689B68002B12D07B68DB684F2BFC
:103840000ED97B681B69002B0AD07B685A69FB681C
:10385000B96801FB03F39A4202D30123BB6114E070
:103860007B689B68002B10D17B68DB68002B0CD138
:103870007B681B69002B08D17B685B69002B04D136
:103880000023BB6101E00023BB61BB69012B0BD1AD
:103890007B681A697B689B6800210091B968F868A9
:1038A00000F070F9F86108E0BB69002B05D1002237
:1038B000B968F86800F0DEF9F861FB69002B0CD0FC
:1038C0007B68002B03D07B681B687B6101E00023D1
:1038D0007B617969F86900F00BFFFB6918462037B6
:1038E000BD4680BD80B485B000AFF860B9607A6035
:1038F000FB68074A1A60BB68064A1A607B68802228
:103900001A6000BF1437BD465DF8047B704700BFE6
:10391000B80100207402002080B485B000AFF860C8
:10392000B9607A60FB68074A1A60BB68064A1A6089
:103930007B684FF480721A6000BF1437BD465DF893
:10394000047B7047740400203005002080B483B0ED
:1039500000AF78607B6803F108027B685A607B687F
:103960004FF0FF329A607B6803F108027B68DA60EF
:103970007B6803F108027B681A617B6800221A6089
:1039800000BF0C37BD465DF8047B704780B483B040
:1039900000AF78607B6800221A6100BF0C37BD461B
:1039A0005DF8047B704780B485B000AF7860396003
:1039B0007B685B68FB603B68FA685A60FB689A68E2
:1039C0003B689A60FB689B683A685A60FB683A6893
:1039D0009A603B687A681A617B681B685A1C7B682E
:1039E0001A6000BF1437BD465DF8047B704780B491
:1039F00085B000AF786039603B681B68BB60BB680E
:103A0000B3F1FF3F03D17B681B69FB600CE07B686F
:103A10000833FB6002E0FB685B68FB60FB685B6887
:103A20001B68BA689A42F6D2FB685A683B685A60CB
:103A30003B685B683A689A603B68FA689A60FB6822
:103A40003A685A603B687A681A617B681B685A1C3E
:103A50007B681A6000BF1437BD465DF8047B704771
:103A600080B485B000AF78607B681B69FB607B68C1
:103A70005B687A6892689A607B689B687A6852682B
:103A80005A60FB685B687A689A4203D17B689A68DF
:103A9000FB685A607B6800221A61FB681B685A1E2B
:103AA000FB681A60FB681B6818461437BD465DF852
:103AB000047B704780B584B000AF786039607B6864
:103AC000FB60FB68002B0AD14FF0500383F3118891
:103AD000BFF36F8FBFF34F8FBB6000BFFEE702F0F5
:103AE00081FBFB681A68FB68DB6BF968096C01FBFA
:103AF00003F31A44FB689A60FB6800229A63FB6830
:103B00001A68FB685A60FB681A68FB68DB6B013B4C
:103B1000F968096C01FB03F31A44FB68DA60FB687F
:103B2000FF2283F84420FB68FF2283F845203B688E
:103B3000002B14D1FB681B69002B1AD0FB681033D3
:103B4000184601F037FB0346002B12D00C4B4FF008
:103B500080521A60BFF34F8FBFF36F8F09E0FB688D
:103B600010331846FFF7F2FEFB6824331846FFF7C0
:103B7000EDFE02F067FB012318461037BD4680BDFD
:103B800004ED00E080B58EB002AFF860B9607A60F5
:103B90003B60FB68002B0AD14FF0500383F3118880
:103BA000BFF36F8FBFF34F8FBB6200BFFEE73B6871
:103BB000002B0AD14FF0500383F31188BFF36F8FAE
:103BC000BFF34F8F7B6200BFFEE77B68002B02D004
:103BD000BB68002B01D0012300E00023002B0AD199
:103BE0004FF0500383F31188BFF36F8FBFF34F8FF4
:103BF0003B6200BFFEE77B68002B02D1BB68002B55
:103C000001D1012300E00023002B0AD14FF0500323
:103C100083F31188BFF36F8FBFF34F8FFB6100BF3A
:103C2000FEE750237B617B69502B0AD04FF0500395
:103C300083F31188BFF36F8FBFF34F8FBB6100BF5A
:103C4000FEE77B693B68FB62FB6A002B0DD0FB6AD9
:103C5000012283F8462097F83820FB6A0093134628
:103C60007A68B968F86800F03FF8FB6A18463037A0
:103C7000BD4680BD80B58AB002AFF860B96013461A
:103C8000FB71FB68002B0AD14FF0500383F31188BE
:103C9000BFF36F8FBFF34F8F3B6100BFFEE7FB6841
:103CA000BA6802FB03F3FB61FB695033184602F06C
:103CB000BBFBB861BB69002B11D0BB697B617B6921
:103CC00050337B61BB69002283F84620FA79BB69D7
:103CD000009313467A69B968F86800F005F8BB6983
:103CE00018462037BD4680BD80B584B000AFF8606F
:103CF000B9607A60FB70BB68002B03D1BB69BA69FD
:103D00001A6002E0BB697A681A60BB69FA68DA6314
:103D1000BB69BA681A640121B869FFF7CBFEBB69B9
:103D2000FA7883F84C2000BF1037BD4680BD80B5BF
:103D300082B000AF78607B68002B0ED07B680022D9
:103D40009A607B6800221A607B680022DA60002398
:103D500000220021786800F01DF800BF0837BD463A
:103D600080BD80B586B000AF0346FB7101237B6147
:103D700000233B61FB791A4639697869FFF77AFFBE
:103D8000F860F868FFF7D3FFFB6818461837BD46A0
:103D900080BD000080B58EB000AFF860B9607A6079
:103DA0003B6000237B63FB683B633B6B002B0AD1CA
:103DB0004FF0500383F31188BFF36F8FBFF34F8F22
:103DC000BB6200BFFEE7BB68002B03D13B6B1B6CE3
:103DD000002B01D1012300E00023002B0AD14FF07A
:103DE000500383F31188BFF36F8FBFF34F8F7B6254
:103DF00000BFFEE73B68022B03D13B6BDB6B012B63
:103E000001D1012300E00023002B0AD14FF0500321
:103E100083F31188BFF36F8FBFF34F8F3B6200BFF7
:103E2000FEE701F089FB0346002B02D17B68002BE3
:103E300001D1012300E00023002B0AD14FF05003F1
:103E400083F31188BFF36F8FBFF34F8FFB6100BF08
:103E5000FEE702F0C7F93B6B9A6B3B6BDB6B9A4258
:103E600002D33B68022B29D13A68B968386B00F05D
:103E70002FFBF8623B6B5B6A002B10D03B6B24334B
:103E8000184601F097F90346002B13D03F4B4FF033
:103E900080521A60BFF34F8FBFF36F8F0AE0FB6A47
:103EA000002B07D0394B4FF080521A60BFF34F8F71
:103EB000BFF36F8F02F0C6F9012363E07B68002B2C
:103EC00003D102F0BFF900235CE07B6B002B06D12D
:103ED00007F11403184601F0D1F901237B6302F0C6
:103EE000B1F900F03DFF02F07DF93B6B93F84430EF
:103EF0005BB2B3F1FF3F03D13B6B002283F8442058
:103F00003B6B93F845305BB2B3F1FF3F03D13B6BA2
:103F1000002283F8452002F095F93A1D07F11403B9
:103F20001146184601F0C0F90346002B24D1386B26
:103F300000F0C6FB0346002B18D03B6B10337A68A9
:103F40001146184601F0E6F8386B00F051FB00F01E
:103F500015FF0346002B7FF47CAF0C4B4FF08052D3
:103F60001A60BFF34F8FBFF36F8F72E7386B00F0AB
:103F70003FFB00F003FF6CE7386B00F039FB00F00B
:103F8000FDFE002318463837BD4680BD04ED00E035
:103F900080B590B000AFF860B9607A603B60FB68B4
:103FA000BB63BB6B002B0AD14FF0500383F3118826
:103FB000BFF36F8FBFF34F8FBB6200BFFEE7BB68DD
:103FC000002B03D1BB6B1B6C002B01D1012300E044
:103FD0000023002B0AD14FF0500383F31188BFF365
:103FE0006F8FBFF34F8F7B6200BFFEE73B68022BF2
:103FF00003D1BB6BDB6B012B01D1012300E000235C
:10400000002B0AD14FF0500383F31188BFF36F8F59
:10401000BFF34F8F3B6200BFFEE702F0C5F9EFF33D
:1040200011824FF0500383F31188BFF36F8FBFF3FA
:104030004F8FFA61BB61FB697B63BB6B9A6BBB6B98
:10404000DB6B9A4202D33B68022B2FD1BB6B93F8F8
:10405000453087F83330BB6B9B6BFB623A68B968BD
:10406000B86B00F035FA97F93330B3F1FF3F12D156
:10407000BB6B5B6A002B16D0BB6B2433184601F078
:1040800099F80346002B0ED07B68002B0BD07B6881
:1040900001221A6007E097F833300133DBB25AB2DD
:1040A000BB6B83F845200123FB6301E00023FB6326
:1040B0007B6B7B617B6983F3118800BFFB6B1846C8
:1040C0004037BD4680BD000080B58CB000AFF860C1
:1040D000B9607A600023FB62FB68BB62BB6A002B9D
:1040E0000AD14FF0500383F31188BFF36F8FBFF3F2
:1040F0004F8F3B6200BFFEE7BB68002B03D1BB6A5A
:104100001B6C002B01D1012300E00023002B0AD1FE
:104110004FF0500383F31188BFF36F8FBFF34F8FBE
:10412000FB6100BFFEE701F007FA0346002B02D156
:104130007B68002B01D1012300E00023002B0AD172
:104140004FF0500383F31188BFF36F8FBFF34F8F8E
:10415000BB6100BFFEE702F045F8BB6A9B6B7B6268
:104160007B6A002B1FD0B968B86A00F01BFA7B6A23
:104170005A1EBB6A9A63BB6A1B69002B0FD0BB6ACD
:104180001033184601F016F80346002B07D03D4BBC
:104190004FF080521A60BFF34F8FBFF36F8F02F062
:1041A00051F8012369E07B68002B03D102F04AF843
:1041B000002362E0FB6A002B06D107F110031846CA
:1041C00001F05CF80123FB6202F03CF800F0C8FD4E
:1041D00002F008F8BB6A93F844305BB2B3F1FF3FDA
:1041E00003D1BB6A002283F84420BB6A93F84530B0
:1041F0005BB2B3F1FF3F03D1BB6A002283F84520D5
:1042000002F020F83A1D07F110031146184601F09C
:104210004BF80346002B23D1B86A00F03BFA034663
:10422000002B17D0BB6A24337A681146184600F079
:1042300071FFB86A00F0DCF900F0A0FD0346002B26
:1042400089D1104B4FF080521A60BFF34F8FBFF3EC
:104250006F8F80E7B86A00F0CBF900F08FFD7AE746
:10426000B86A00F0C5F900F089FDB86A00F012FAEA
:104270000346002B3FF46FAF002318463037BD468E
:1042800080BD00BF04ED00E080B58EB000AF786067
:10429000396000237B637B68FB6200233B63FB6A1E
:1042A000002B0AD14FF0500383F31188BFF36F8FB7
:1042B000BFF34F8F3B6200BFFEE7FB6A1B6C002B16
:1042C0000AD04FF0500383F31188BFF36F8FBFF311
:1042D0004F8FFB6100BFFEE701F02EF90346002B74
:1042E00002D13B68002B01D1012300E00023002B09
:1042F0000AD14FF0500383F31188BFF36F8FBFF3E0
:104300004F8FBB6100BFFEE701F06CFFFB6A9B6B48
:10431000BB62BB6A002B24D0BB6A5A1EFB6A9A633D
:10432000FB6A1B68002B04D101F07CFA0246FB6A91
:104330009A60FB6A1B69002B0FD0FB6A103318468A
:1043400000F038FF0346002B07D0544B4FF080524B
:104350001A60BFF34F8FBFF36F8F01F073FF01231C
:1043600097E03B68002B11D13B6B002B0AD04FF03C
:10437000500383F31188BFF36F8FBFF34F8F7B61BF
:1043800000BFFEE701F05EFF002382E07B6B002BA5
:1043900006D107F10C03184600F070FF01237B6380
:1043A00001F050FF00F0DCFC01F01CFFFB6A93F809
:1043B00044305BB2B3F1FF3F03D1FB6A002283F8C4
:1043C0004420FB6A93F845305BB2B3F1FF3F03D161
:1043D000FB6A002283F8452001F034FF3A4607F1DA
:1043E0000C031146184600F05FFF0346002B32D144
:1043F000F86A00F04FF90346002B26D0FB6A1B68D1
:10440000002B09D101F0EEFEFB6A9B68184601F013
:10441000B1F8386301F016FFFB6A24333A6811469D
:10442000184600F077FEF86A00F0E2F800F0A6FC0B
:104430000346002B7FF468AF184B4FF080521A6090
:10444000BFF34F8FBFF36F8F5EE7F86A00F0D0F8CD
:1044500000F094FC58E7F86A00F0CAF800F08EFC0F
:10446000F86A00F017F90346002B3FF44DAF3B6BA1
:10447000002B0DD001F0B6FEF86A00F011F878625A
:10448000FB6A9B68796A184601F04AF901F0DAFE86
:10449000002318463837BD4680BD00BF04ED00E05C
:1044A00080B485B000AF78607B685B6A002B06D073
:1044B0007B681B6B1B68C3F13803FB6001E00023C2
:1044C000FB60FB6818461437BD465DF8047B7047F7
:1044D00080B586B000AFF860B9607A6000237B6178
:1044E000FB689B6B3B61FB681B6C002B0DD1FB6871
:1044F0001B68002B4DD1FB689B68184601F0A2F8A1
:104500007861FB6800229A6043E07B68002B19D138
:10451000FB685868FB681B6C1A46B96802F094F98E
:10452000FB685A68FB681B6C1A44FB685A60FB689E
:104530005A68FB689B689A422BD3FB681A68FB6831
:104540005A6026E0FB68D868FB681B6C1A46B9689D
:1045500002F07AF9FB68DA68FB681B6C5B421A446C
:10456000FB68DA60FB68DA68FB681B689A4207D26E
:10457000FB689A68FB681B6C5B421A44FB68DA6054
:104580007B68022B05D13B69002B02D03B69013BC4
:104590003B613B695A1CFB689A637B691846183774
:1045A000BD4680BD80B582B000AF786039607B6861
:1045B0001B6C002B18D07B68DA687B681B6C1A4474
:1045C0007B68DA607B68DA687B689B689A4203D311
:1045D0007B681A687B68DA607B68D9687B681B6CCB
:1045E0001A46386802F030F900BF0837BD4680BD72
:1045F00080B584B000AF786001F0F4FD7B6893F87B
:104600004530FB7311E07B685B6A002B12D07B683E
:104610002433184600F0CEFD0346002B01D000F0F5
:10462000A5FEFB7B013BDBB2FB7397F90F30002B40
:10463000E9DC00E000BF7B68FF2283F8452001F041
:1046400001FE01F0CFFD7B6893F84430BB7311E0AD
:104650007B681B69002B12D07B681033184600F072
:10466000A9FD0346002B01D000F080FEBB7B013B7F
:10467000DBB2BB7397F90E30002BE9DC00E000BF22
:104680007B68FF2283F8442001F0DCFD00BF103777
:10469000BD4680BD80B584B000AF786001F0A2FD5A
:1046A0007B689B6B002B02D10123FB6001E00023A0
:1046B000FB6001F0C7FDFB6818461037BD4680BDA2
:1046C00080B584B000AF786001F08CFD7B689A6B98
:1046D0007B68DB6B9A4202D10123FB6001E000237F
:1046E000FB6001F0AFFDFB6818461037BD4680BD8A
:1046F00080B485B000AF786039600023FB6014E0BF
:104700000F4AFB6852F83330002B0BD10C49FB6881
:104710003A6841F833200A4AFB68DB0013447A68A0
:104720005A6006E0FB680133FB60FB68072BE7D9A2
:1047300000BF00BF1437BD465DF8047B704700BF63
:104740003009002080B586B000AFF860B9607A60AB
:10475000FB687B6101F046FD7B6993F844305BB2F6
:10476000B3F1FF3F03D17B69002283F844207B69CA
:1047700093F845305BB2B3F1FF3F03D17B69002270
:1047800083F8452001F05EFD7B699B6B002B06D111
:104790007B6924337A68B968184600F0DFFC7869D1
:1047A000FFF726FF00BF1837BD4680BD80B58EB02D
:1047B00004AFF860B9607A603B607B6B002B0AD174
:1047C0004FF0500383F31188BFF36F8FBFF34F8F08
:1047D0003B6200BFFEE7BB6B002B0AD14FF05003DA
:1047E00083F31188BFF36F8FBFF34F8FFB6100BF5F
:1047F000FEE7BC233B613B69BC2B0AD04FF0500362
:1048000083F31188BFF36F8FBFF34F8FBB6100BF7E
:10481000FEE73B69BB6B002B1ED07B6B002B1BD0D4
:10482000BB6B7B627B6A7A6B1A637B6A022283F8BA
:10483000B920002303937B6A029307F114030193C9
:104840003B6B00933B687A68B968F86800F050F8F1
:10485000786A00F0F3F801E000237B617B69184679
:104860002837BD4680BD80B58CB004AFF860B96014
:104870003B601346FB80FB889B00184601F0D4FD8B
:1048800078617B69002B0ED0BC2001F0CDFDF86172
:10489000FB69002B03D0FB697A691A6305E078692C
:1048A00001F08EFE01E00023FB61FB69002B17D0B5
:1048B000FB69002283F8B920FA8800230393FB697F
:1048C0000293FB6A0193BB6A00933B68B968F8687E
:1048D00000F00EF8F86900F0B1F80123BB6102E0C6
:1048E0004FF0FF33BB61BB6918462037BD4680BD22
:1048F00080B588B000AFF860B9607A603B603B6B10
:10490000186B7B689B001A46A52101F0ABFF3B6B3F
:104910001A6B7B6803F18043013B9B001344BB612E
:10492000BB6923F00703BB61BB6903F00703002BDE
:104930000AD04FF0500383F31188BFF36F8FBFF39A
:104940004F8F7B6100BFFEE7BB68002B1FD00023A9
:10495000FB6112E0BA68FB69134419783A6BFB6992
:10496000134434330A461A70BA68FB6913441B783F
:10497000002B06D0FB690133FB61FB690F2BE9D9E2
:1049800000E000BF3B6B002283F8432003E03B6B59
:10499000002283F83420BB6A372B01D93723BB624E
:1049A0003B6BBA6ADA623B6BBA6ADA643B6B002231
:1049B0001A653B6B04331846FEF7E8FF3B6B183370
:1049C0001846FEF7E3FF3B6B3A6B1A61BB6AC3F113
:1049D00038023B6B9A613B6B3A6B5A623B6B00222D
:1049E000C3F8B4203B6B002283F8B8203B6B5433F0
:1049F00060220021184601F035FF3B6B0C4A9A6596
:104A00003B6B0C4ADA653B6B0B4A1A663A68F968ED
:104A1000B86901F0BDFA02463B6B1A60FB6A002BD5
:104A200002D0FB6A3A6B1A6000BF2037BD4680BDDA
:104A3000406B0008606B0008206B000880B582B0F6
:104A400000AF786001F0CEFB2D4B1B6801332C4A80
:104A500013602C4B1B68002B09D12A4A7B6813601A
:104A6000274B1B68012B10D100F0A4FC0DE0264B56
:104A70001B68002B09D1234B1B68DA6A7B68DB6A51
:104A80009A4202D81F4A7B681360204B1B6801338F
:104A90001E4A13601D4B1A687B685A647B68DA6A89
:104AA0001B4B1B689A4203D97B68DB6A184A136068
:104AB0007B68DA6A13469B0013449B00154A1A442C
:104AC0007B68043319461046FEF76DFF01F0BAFB10
:104AD0000D4B1B68002B0ED00A4B1B68DA6A7B68F3
:104AE000DB6A9A4207D20C4B4FF080521A60BFF338
:104AF0004F8FBFF36F8F00BF0837BD4680BD00BF2B
:104B0000440E002070090020500E0020600E00208E
:104B10004C0E00207409002004ED00E080B58AB03E
:104B200000AF7860396000237B627B68002B0AD17C
:104B30004FF0500383F31188BFF36F8FBFF34F8F94
:104B40007B6100BFFEE73B68002B0AD14FF05003AA
:104B500083F31188BFF36F8FBFF34F8F3B6100BFAB
:104B6000FEE72A4B1B68002B0AD04FF0500383F35B
:104B70001188BFF36F8FBFF34F8FFB6000BFFEE75D
:104B800000F0EEF8224B1B683B627B681B683A68BA
:104B90001344FB617B681B683A6A9A420BD27B68BC
:104BA0001B68FA699A4211D2FA693B6A9A420DD996
:104BB00001237B620AE07B681B68FA699A4203D38F
:104BC000FA693B6A9A4201D901237B627B68FA69E0
:104BD0001A607B6A002B06D0FA693B6AD31A00215F
:104BE000184600F033FE00F0C9F8B861BB69002B2D
:104BF00007D1084B4FF080521A60BFF34F8FBFF3BD
:104C00006F8F00BF2837BD4680BD00BF6C0E0020EF
:104C1000480E002004ED00E080B584B000AF78605D
:104C20000023FB607B68002B17D0134B1B68002B05
:104C30000AD04FF0500383F31188BFF36F8FBFF397
:104C40004F8FBB6000BFFEE700F08AF80021786854
:104C500000F0FCFD00F092F8F860FB68002B07D133
:104C6000064B4FF080521A60BFF34F8FBFF36F8F28
:104C700000BF1037BD4680BD6C0E002004ED00E083
:104C800080B58AB004AF0023BB6000237B603A4646
:104C9000391D07F108031846FEF724FE39687B68C2
:104CA000BA68029201930023009300230A46244924
:104CB0002448FFF77BFD0346234A1360224B1B6801
:104CC000002B02D001237B6101E000237B617B6923
:104CD000012B02D100F00EFE78617B69012B1BD104
:104CE0004FF0500383F31188BFF36F8FBFF34F8FE3
:104CF0003B6100BF154B1B685433154A1360154BBD
:104D00004FF0FF321A60144B01221A60134B00223D
:104D10001A6001F0C5F90EE07B69B3F1FF3F0AD1DB
:104D20004FF0500383F31188BFF36F8FBFF34F8FA2
:104D3000FB6000BFFEE700BF1837BD4680BD00BF67
:104D4000B46A000885530008680E0020700900202E
:104D500010000020640E0020500E0020480E00209D
:104D600080B400AF044B1B680133034A136000BFDB
:104D7000BD465DF8047B70476C0E002080B584B0A2
:104D800000AF0023FB600023BB60424B1B68002B7D
:104D90000AD14FF0500383F31188BFF36F8FBFF335
:104DA0004F8F3B6000BFFEE701F01CFA394B1B68D8
:104DB000013B384A1360374B1B68002B62D1364BDE
:104DC0001B68002B5ED02FE0344BDB68DB68FB6098
:104DD000FB6818331846FEF743FEFB680433184699
:104DE000FEF73EFEFB68DA6A2D4B1B689A4203D938
:104DF000FB68DB6A2A4A1360FB68DA6A13469B0089
:104E000013449B00274A1A44FB6804331946104692
:104E1000FEF7C9FDFB68DA6A234B1B68DB6A9A421E
:104E200002D3224B01221A601C4B1B68002BCBD1F2
:104E3000FB68002B01D000F05FFB1D4B1B687B6003
:104E40007B68002B10D000F047F80346002B02D0FF
:104E5000164B01221A607B68013B7B607B68002B4C
:104E6000F1D1134B00221A60104B1B68002B09D0A4
:104E70000123BB600F4B4FF080521A60BFF34F8F7E
:104E8000BFF36F8F01F0DEF9BB6818461037BD46DF
:104E900080BD00BF6C0E0020440E0020040E0020D8
:104EA0004C0E00207409002070090020580E0020CC
:104EB000540E002004ED00E080B483B000AF054B39
:104EC0001B687B607B6818460C37BD465DF8047B29
:104ED000704700BF480E002080B586B000AF0023A9
:104EE0007B614F4B1B68002B40F08F804D4B1B6844
:104EF00001333B614B4A3B6913603B69002B20D176
:104F0000494B1B681B68002B0AD04FF0500383F3FA
:104F10001188BFF36F8FBFF34F8F3B6000BFFEE779
:104F2000414B1B68FB60414B1B683F4A13603F4A83
:104F3000FB6813603E4B1B6801333D4A136000F071
:104F4000DBFA3C4B1B683A699A4249D3364B1B68E3
:104F50001B68002B04D1374B4FF0FF321A603FE043
:104F6000314B1B68DB68DB68BB60BB685B687B60E0
:104F70003A697B689A4203D22E4A7B6813602FE01D
:104F8000BB6804331846FEF76BFDBB689B6A002BB9
:104F900004D0BB6818331846FEF762FDBB68DA6AB6
:104FA000254B1B689A4203D9BB68DB6A224A13600F
:104FB000BB68DA6A13469B0013449B001F4A1A44DD
:104FC000BB68043319461046FEF7EDFCBB68DA6A8D
:104FD0001B4B1B68DB6A9A42B8D301237B61B5E7A0
:104FE000174B1B68DA6A154913469B0013449B0054
:104FF0000B441B68012B01D901237B61114B1B68FA
:10500000002B07D001237B6104E00F4B1B680133A9
:105010000D4A13607B6918461837BD4680BD00BF36
:105020006C0E0020480E0020FC0D0020000E002019
:105030005C0E0020640E00204C0E0020740900203D
:1050400070090020580E0020540E002080B485B056
:1050500000AF2A4B1B68002B03D0294B01221A609A
:1050600046E0274B00221A60264B1B68FB6010E0CD
:10507000FB68002B0AD14FF0500383F31188BFF374
:105080006F8FBFF34F8F7B6000BFFEE7FB68013B74
:10509000FB601D49FA6813469B0013449B000B44B8
:1050A0001B68002BE4D0FA6813469B0013449B0056
:1050B000154A1344BB60BB685B685A68BB685A609A
:1050C000BB685A68BB6808339A4204D1BB685B6806
:1050D0005A68BB685A60BB685B68DB680B4A136040
:1050E000084AFB681360094B1B685433084A136075
:1050F00000BF1437BD465DF8047B70476C0E00207E
:10510000580E00204C0E0020740900207009002069
:105110001000002080B584B000AF786039607B68F3
:10512000002B0AD14FF0500383F31188BFF36F8F28
:10513000BFF34F8FFB6000BFFEE7074B1B681833C0
:1051400019467868FEF753FC0121386800F07EFBB1
:1051500000BF1037BD4680BD7009002080B586B005
:1051600000AFF860B9607A60FB68002B0AD14FF09D
:10517000500383F31188BFF36F8FBFF34F8F7B61B1
:1051800000BFFEE70A4B1B6818331946F868FEF7A4
:105190000AFC7B68002B02D04FF0FF33BB607968BC
:1051A000B86800F053FB00BF1837BD4680BD00BF94
:1051B0007009002080B586B000AF78607B68DB683E
:1051C000DB683B613B69002B0AD14FF0500383F34E
:1051D0001188BFF36F8FBFF34F8FFB6000BFFEE7F7
:1051E0003B6918331846FEF73BFC1E4B1B68002B2F
:1051F0001DD13B6904331846FEF732FC3B69DA6A7D
:10520000194B1B689A4203D93B69DB6A164A136043
:105210003B69DA6A13469B0013449B00134A1A4405
:105220003B69043319461046FEF7BDFB05E03B69B8
:10523000183319460E48FEF7B6FB3B69DA6A0D4B88
:105240001B68DB6A9A4205D901237B610A4B012264
:105250001A6001E000237B617B6918461837BD4660
:1052600080BD00BF6C0E00204C0E00207409002091
:10527000040E002070090020580E002080B483B076
:1052800000AF7860064B1A687B681A60054B1A6895
:105290007B685A6000BF0C37BD465DF8047B7047E1
:1052A0005C0E0020480E002080B588B000AF78600A
:1052B00039607B68002B0AD14FF0500383F31188CB
:1052C000BFF36F8FBFF34F8F3B6100BFFEE73B68BB
:1052D000002B0AD14FF0500383F31188BFF36F8F77
:1052E000BFF34F8FFB6000BFFEE700F07BFF1D4B5D
:1052F0001B68BB617B685B68BA69D31A7B613B68DA
:105300001B68B3F1FF3F02D10023FB6123E07B6800
:105310001A68154B1B689A4207D07B685B68BA69AC
:105320009A4202D30123FB6115E03B681B687A694E
:105330009A420BD23B681A687B69D21A3B681A60A2
:105340007868FFF79BFF0023FB6104E03B680022C5
:105350001A600123FB6100F075FFFB6918462037D6
:10536000BD4680BD480E00205C0E002080B400AF1A
:10537000034B01221A6000BFBD465DF8047B7047F5
:10538000580E002080B582B000AF786000F052F86F
:10539000064B1B68012BF9D9054B4FF080521A6060
:1053A000BFF34F8FBFF36F8FF0E700BF740900208A
:1053B00004ED00E080B582B000AF00237B600CE01C
:1053C0007A6813469B0013449B00124A1344184604
:1053D000FEF7BCFA7B6801337B607B68372BEFD923
:1053E0000D48FEF7B3FA0D48FEF7B0FA0C48FEF789
:1053F000ADFA0C48FEF7AAFA0B48FEF7A7FA0B4BDA
:10540000054A1A600A4B054A1A6000BF0837BD46B4
:1054100080BD00BF74090020D40D0020E80D0020DD
:10542000040E0020180E0020300E0020FC0D00207D
:10543000000E002080B582B000AF19E000F0D2FE6F
:10544000104BDB68DB687B607B6804331846FEF733
:1054500007FB0D4B1B68013B0B4A13600B4B1B6892
:10546000013B0A4A136000F0EDFE786800F010F886
:10547000064B1B68002BE1D100BF00BF0837BD46BB
:1054800080BD00BF180E0020440E00202C0E00200E
:1054900080B584B000AF78607B685433184601F063
:1054A000F7F97B6893F8B930002B08D17B681B6B48
:1054B000184601F085F8786801F082F818E07B68FA
:1054C00093F8B930012B03D1786801F079F80FE037
:1054D0007B6893F8B930022B0AD04FF0500383F366
:1054E0001188BFF36F8FBFF34F8FFB6000BFFEE7E4
:1054F00000BF1037BD4680BD80B483B000AF0C4BF9
:105500001B681B68002B04D10A4B4FF0FF321A6056
:1055100008E0074B1B68DB68DB687B607B685B68C7
:10552000044A136000BF0C37BD465DF8047B70472A
:10553000FC0D0020640E002080B483B000AF0B4B44
:105540001B68002B02D101237B6008E0084B1B681D
:10555000002B02D102237B6001E000237B607B688B
:1055600018460C37BD465DF8047B7047500E00208E
:105570006C0E002080B584B000AF78607B68BB60A3
:105580000023FB607B68002B51D0BB68DA6A2A4B92
:105590001B68DB6A9A4241D2BB689B69002B06DB21
:1055A000254B1B68DB6AC3F13802BB689A61BB6894
:1055B0005969BB68DA6A13469B0013449B001F4A73
:1055C0001344994222D1BB6804331846FEF748FAC7
:1055D000194B1B68DA6ABB68DA62BB68DA6A184B77
:1055E0001B689A4203D9BB68DB6A154A1360BB6823
:1055F000DA6A13469B0013449B00104A1A44BB68A6
:10560000043319461046FEF7CEF904E00A4B1B6836
:10561000DA6ABB68DA620123FB6008E0BB68DA6C17
:10562000054B1B68DB6A9A4201D20123FB60FB68D1
:1056300018461037BD4680BD70090020740900204F
:105640004C0E002080B586B000AF78607B683B616F
:1056500000237B617B68002B56D02E4B1B683A6978
:105660009A420AD04FF0500383F31188BFF36F8F33
:10567000BFF34F8FFB6000BFFEE73B691B6D002B44
:105680000AD14FF0500383F31188BFF36F8FBFF33C
:105690004F8FBB6000BFFEE73B691B6D5A1E3B6925
:1056A0001A653B69DA6A3B69DB6C9A422CD03B692C
:1056B0001B6D002B28D13B6904331846FEF7D0F947
:1056C0003B69DA6C3B69DA623B69DB6AC3F1380239
:1056D0003B699A613B69DA6A0F4B1B689A4203D9AE
:1056E0003B69DB6A0C4A13603B69DA6A13469B002C
:1056F00013449B00094A1A443B6904331946104677
:10570000FEF751F901237B617B6918461837BD46C6
:1057100080BD00BF700900204C0E002074090020DD
:1057200080B588B000AF786039607B68BB610123C9
:105730007B617B68002B6AD0BB691B6D002B0AD193
:105740004FF0500383F31188BFF36F8FBFF34F8F78
:10575000FB6000BFFEE7BB69DB6C3A689A4202D986
:105760003B68FB6102E0BB69DB6CFB61BB69DB6A28
:10577000FA699A424BD0BB691B6D7A699A4246D14D
:10578000254B1B68BA699A420AD14FF0500383F344
:105790001188BFF36F8FBFF34F8FBB6000BFFEE771
:1057A000BB69DB6A3B61BB69FA69DA62BB699B6909
:1057B000002B04DBFB69C3F13802BB699A61BB694A
:1057C00059693A6913469B0013449B00134A1344DA
:1057D00099421CD1BB6904331846FEF741F9BB69F5
:1057E000DA6A0F4B1B689A4203D9BB69DB6A0C4A21
:1057F0001360BB69DA6A13469B0013449B00074A97
:105800001A44BB69043319461046FEF7CCF800BFB2
:105810002037BD4680BD00BF7009002074090020FC
:105820004C0E002080B400AF074B1B68002B04D047
:10583000054B1B681A6D01321A65034B1B6818462D
:10584000BD465DF8047B70477009002080B584B0C8
:1058500000AF78603960214B1B68FB60204B1B68F0
:1058600004331846FEF7FCF87B68B3F1FF3F0AD11A
:105870003B68002B07D01A4B1B68043319461948A4
:10588000FEF791F826E0FA687B681344BB60144B7E
:105890001B68BA685A60BA68FB689A4209D2124B10
:1058A0001A680F4B1B68043319461046FEF79FF821
:1058B00010E00E4B1A680A4B1B6804331946104659
:1058C000FEF795F80A4B1B68BA689A4202D2084A5A
:1058D000BB68136000BF1037BD4680BD480E002076
:1058E00070090020300E0020000E0020FC0D00206A
:1058F000640E002080B58AB004AF00237B6100F005
:1059000007FB1C4B1B68002B21D00023FB600023EE
:10591000BB603A1D07F1080107F10C031846FDF7BB
:10592000FBFF7968BB68FA68029201930223009337
:1059300000230A4610491148FEF738FF0346104A73
:1059400013600F4B1B68002B01D001237B617B6927
:10595000002B0AD14FF0500383F31188BFF36F8FF0
:10596000BFF34F8F3B6100BFFEE77B6918461837D6
:10597000BD4680BDA00E0020BC6A0008B95A0008D0
:10598000A40E002080B58AB000AFF860B9607A60DC
:105990003B6000237B62FB68002B0AD14FF0500371
:1059A00083F31188BFF36F8FBFF34F8F3B6200BF4C
:1059B000FEE71A4B1B68002B2AD0BB683B617B6853
:1059C0007B61FB68BB61BB68052B18DCFFF7B4FD8E
:1059D0000346022B09D1114B186807F1100100236F
:1059E0003A6BFEF7D7F9786212E00C4B186807F1B2
:1059F000100100230022FEF7CDF9786208E0074B82
:105A0000186807F1100100233A68FEF7C1FA7862BE
:105A10007B6A18462837BD4680BD00BFA00E002017
:105A200080B588B002AF78603960224B1B68DB68B4
:105A3000DB687B617B6904331846FEF711F87B69EC
:105A400093F8283003F00403002B22D07B699A6975
:105A50007B68D1187B683A68786900F0D1F8034612
:105A6000002B1FD00023009300237A68002178695F
:105A7000FFF788FF38613B69002B13D14FF05003CB
:105A800083F31188BFF36F8FBFF34F8FFB6000BFAD
:105A9000FEE77B6993F8283023F00103DAB27B69D3
:105AA00083F828207B691B6A7869984700BF1837FC
:105AB000BD4680BD980E002080B584B000AF7860F0
:105AC00007F10803184600F057F8F860BB6819465C
:105AD000F86800F003F800F0D5F8F1E780B584B07D
